:020000040800F2
:10000000E00800204501000841180008410F0008E1
:100010001F170008AD0A0008A11E0008000000001C
:100020000000000000000000000000000D190008A2
:10003000B10A000800000000C9180008F9190008FA
:100040005F0100085F0100085F0100085F01000810
:100050005F0100085F0100085F0100085F01000800
:100060005F0100085F0100085F0100085F010008F0
:100070005F0100085F0100085F0100085F010008E0
:100080005F0100085F0100085F0100085F010008D0
:100090005F0100085F0100085F0100085F010008C0
:1000A0005F0100086D1A00085F0100085F01000889
:1000B0005F010008091B00085F0100085F010008DC
:1000C0005F0100085F0100085F0100085F01000890
:1000D0005F0100085F0100085F0100085F01000880
:1000E0005F0100085F0100085F0100085F01000870
:1000F0005F0100085F0100085F0100085F01000860
:100100005F0100085F0100085F0100085F0100084F
:100110005F0100085F0100085F0100085F0100083F
:100120005F0100085F0100085F0100085F0100082F
:10013000DFF80CD000F03EFC00480047C52F000857
:10014000E00800200648804706480047FEE7FEE733
:10015000FEE7FEE7FEE7FEE7FEE7FEE7FEE7FEE777
:100160000D1A000831010008D2B201E000F8012B9D
:10017000491EFBD270470022F6E710B513460A4627
:1001800004461946FFF7F0FF204610BDF0B480EAA0
:100190000102D40F4200B2EB410F02D202460846E0
:1001A00011464A0042D0C30DDDB2C1F3C752AD1AA9
:1001B000202D35DAC1F3160141F4000204B1524298
:1001C000C5F1200602FA06F12A411044B3EBD05FD4
:1001D00023D0C4B1012DA0EBC35009DCF0BC4FF01B
:1001E000004202EAC352DBB200F5000000F00FBB90
:1001F000400000F1807000EBC350A0F1807040EA35
:10020000D170490009E0490841EAC071A0EBC35030
:1002100000F50000400800EBC350F0BC00F0EEBA5F
:100220006142012202EB4101001BF6E7F0BC70477E
:1002300081F00041AAE780F00040A7E780EA0102D0
:1002400010B502F00043400022D04A001FD0010E3A
:1002500001EB1261C0F35600C2F3560240F40000F5
:1002600042F40002A0FB022000047F39140400D0F5
:10027000401C50EA124001D44000491EC2B20C0694
:1002800004EBD010401C4008802A02D003E000207C
:1002900010BD20F00100002900DA0020184310BD35
:1002A00030B480EA010202F0004530F0004221F053
:1002B000004013D090B1C30DD40DC2F31601C0F3AA
:1002C0001600E41A41F4000140F400027D3491422A
:1002D00001D3641C00E04900002C02DA30BC00208D
:1002E00070474FF400000023914201D3891A034361
:1002F00040084FEA4101F7D151B1914202D14FF08C
:10030000004105E002D24FF0010101E06FF0010170
:1003100003EBC450284430BC00F070BA2DE9FE4F06
:10032000804681EA0300C00F0C46009021F0004196
:1003300023F00045B8EB0200A94105D24046214612
:1003400090461C460B46024623F00040104347D01F
:10035000270DC7F30A00C3F30A510290401A019017
:1003600040286BDAC3F3130040F4801B00989246D8
:1003700020B10023D2EB030A63EB0B0B0198594623
:10038000C0F14002504600F008FA06460D465046BD
:100390005946019A00F020FA10EB08006141002450
:1003A00087EA115284EAE7731A4340D0009A62B395
:1003B000019A012A4FEA075215DC001B61EB02018A
:1003C0004FF0004202EA0752CDE90042001C41F51D
:1003D000801132462B4600F057FA03B0BDE8F08F8B
:1003E00040462146F9E7001B61EB0201001C41F584
:1003F000801300185B412018A2F5001747EB03019A
:1004000040EAD570B6196D4111E06D084FEA360625
:1004100045EAC0754FEA0752001B61EB0201001C60
:1004200041F5801149084FEA300000195141324628
:100430002B4603B0BDE8F04F00F017BA0098012238
:1004400040000023D0EB020263EBE07300982146EA
:100450004FEAE074B8EB000061EB0401E9E783F0D8
:1004600000435BE781F0004158E72DE9FE4F81EA48
:10047000030404F0004421F0004100944FF0000B0D
:1004800023F0004350EA01045ED052EA03045BD03B
:10049000C3F30A54C1F30A552C44A4F2F334019473
:1004A000A0FB0254C1F3130141F48011C3F3130301
:1004B00043F4801301FB024400FB034E840A970AB5
:1004C00044EA815447EA8357A4FB076802958D0AE2
:1004D00005FB07854FEA932C04FB0C542705029D6E
:1004E0004FEA065847EA1637B5EB08056EEB070CDE
:1004F000870E920E47EA811742EA8312A7FB020198
:10050000B6EB0B0164EB00042B0D43EA0C335E18D1
:1005100044EB1C50DA465146E7FB0201C5F31304D5
:100520004FEA0B3343EA14534FEA0432019C43EA87
:100530000603A4F10C040294009CCDE900B400F081
:10054000A3F903B0BDE8F08F00200146F9E72DE9DB
:10055000F04D81EA030404F0004B21F000451446FD
:100560004FF0000A23F0004150EA050220D054EA7F
:1005700001021DD0C5F30A570246C5F31303C1F3A8
:100580001300C1F30A5640F4801543F48013A7EB1F
:100590000608101BD64608F2FD3873EB050002D39F
:1005A00008F1010801E092185B41B8F1000F03DA8D
:1005B00000200146BDE8F08D00204FF48011064672
:1005C00084460EE0171B73EB050705D3121B63EB84
:1005D000050306434CEA010C49084FEA3000921823
:1005E0005B4150EA0107EDD152EA030012D082EAE2
:1005F000040083EA0501084305D0101BAB4106D275
:100600000122002306E000224FF0004302E06FF0D9
:10061000010253101AEB06004CEB085110EB0A00D4
:1006200041EB0B01BDE8F04D00F01FB9C10F80EAAE
:10063000E0700844CA079623002100F0E8B896232A
:100640000022114600F0E3B870B5C1F30A5201F080
:1006500000450024C1F3130140F2FF3341F480113F
:100660009A4201DA002070BD40F233439A42A2F26E
:10067000334203DC524200F09FF800E090402C43EC
:10068000F1D0404270BD00F0004230F000400AD08E
:10069000C10D01F56071C0F3160042EA0151C208B4
:1006A00040071143704700200146704701F00043A6
:1006B00030B421F0004150EA010206D00A0DA2F543
:1006C0006072C1F31301002A02DC30BC00207047C5
:1006D000440F44EAC104C100E01830BC00EBC25032
:1006E00000F08CB8002801DBC0F10040002901DBDC
:1006F000C1F1004181427047002801DBC0F1004098
:10070000002901DBC1F100418842704730B50B463A
:10071000014600202022012409E021FA02F59D4231
:1007200005D303FA02F5491B04FA02F52844151E05
:10073000A2F10102F1DC30BD2DE9F05F0546002099
:1007400092469B4688460646814640241BE0284642
:1007500041464746224600F02FF853465A46C01AF3
:10076000914110D311461846224600F016F82D1A72
:1007700067EB01084F4622460120002100F00DF8EA
:1007800017EB00094E41201EA4F10104DFDC4846AE
:1007900031462A464346BDE8F09F202A04DB203A32
:1007A00000FA02F1002070479140C2F1200320FAC4
:1007B00003F3194390407047202A04DB203A21FAC2
:1007C00002F00021704721FA02F3D040C2F120026A
:1007D0009140084319467047202A06DBCB17203A80
:1007E00041FA02F043EAE07306E041FA02F3D04036
:1007F000C2F1200291400843194670470029A8BF62
:100800007047401C490008BF20F00100704710B439
:10081000B0FA80FC00FA0CF050EA010404BF10BCEE
:10082000704749B1CCF1200421FA04F411FA0CF11B
:1008300018BF012121430843A3EB0C01CB1D4FEA54
:1008400000614FEA102042BF002010BC704700EB4F
:10085000C35010440029A4BF10BC7047401C49007D
:1008600008BF20F0010010BC704710B5141E73F1D2
:10087000000408DA401C41F1000192185B411A4360
:1008800001D120F0010010BD2DE9F04D92469B46AC
:1008900011B1B1FA81F202E0B0FA80F22032904652
:1008A000FFF77BFF04460F4640EA0A0041EA0B01CE
:1008B00053465A46084313D0114653EA010019D053
:1008C000C8F140025046FFF777FF05460E465046F6
:1008D00059464246FFF761FF084305D0012004E076
:1008E00020463946BDE8F08D0020054346EAE07613
:1008F0002C4337430A986305E40AA0EB0800002262
:10090000FD0A44EA47540A3002D500200146E9E7CF
:10091000010510196941DDE9084500196941BDE883
:10092000F04DA2E770B521F0004303430CD0C1F3B2
:100930000A550024D5EB040564EB0403D617AD1A61
:10094000B34102DB0020014670BD201841EB02518B
:1009500070BDC1F30A52C1F3130140F2FF3341F4F9
:1009600080119A4202DA00200146704740F2334378
:100970009A42A2F2334202DC5242FFF71DBFFFF758
:100980000CBF000030B5041E71F1000404DB4FF011
:100990000044404264EB0101141E73F1000405DBC6
:1009A0001C464FF00043524263EB0403994208BFD8
:1009B000904230BD064C074D06E0E06840F0010370
:1009C00094E8070098471034AC42F6D3FFF7B4FB25
:1009D000D03E0008F03E000870B58C1810F8015B9E
:1009E00015F0070301D110F8013B2A1106D110F8C8
:1009F000012B03E010F8016B01F8016B5B1EF9D1CC
:100A00002B0705D40023521E0DD401F8013BFAE751
:100A100010F8013BCB1A921C03E013F8015B01F8BC
:100A2000015B521EF9D5A142D8D3002070BD000051
:100A3000114A128812B2114B1A80114A128812B24E
:100A4000104B1A800022104B1A70104B1A80104B5A
:100A50001A8001220F4B1A704FF6FF720E4B1A804C
:100A60000E4B1A8001220E4B1A7000220D4B1A7089
:100A70000D4B1A6070470000280000201400002071
:100A80002A0000201600002021000020180000206D
:100A90001A000020200000201E0000201C00002062
:100AA00022000020230000202400002000BFFEE7D9
:100AB000704700002F48C06940F001002D49C8610F
:100AC0000846806940F0040088612B48006820F0E7
:100AD0000F00294908600846006840F004000860DB
:100AE0000846006820F0F00008600846006840F002
:100AF00040000860C804808940F00100C904888172
:100B00000846808940F040008881002008854FF623
:100B1000E75088850846008820F440700880084621
:100B2000008820F0600008800846008B40F001003B
:100B300008830846008B40F4807008830846008CC8
:100B400020F0020008840846008C20F02000088471
:100B50000846008B40F0300008830846008940F0CA
:100B600003000881002088840846008840F00100C6
:100B70000880704700100240000801403B48C069EF
:100B800040F004003949C8610846806940F0080017
:100B900088613748006820F0706035490860084671
:100BA000006840F0006008600846006820F070406F
:100BB00008600846006840F0804008602D480088C2
:100BC00040F001002B4908800846008840F04000B2
:100BD0000880002027491C3108804FF6E750091D86
:100BE000088024480C38008820F4407021490C39D2
:100BF00008800846008820F0600008801D480C30FE
:100C0000008840F001001B490C310880084600882C
:100C100040F48070088017481430008820F00200EB
:100C20001449143108800846008820F0200008800C
:100C300010480C30008840F030000E490C3108801C
:100C40000C48001F008840F003000A49091F088073
:100C5000002008491831088006480C38008840F008
:100C6000010004490C390880704700000010024060
:100C7000000C01400C0800402DE9F041024600251F
:100C80000026002000230024002791F803C00CF068
:100C90000F0591F803C00CF0100CBCF1000F03D04D
:100CA00091F802C04CEA050591F800C0BCF1000FB4
:100CB00031D0146800202BE04FF0010C0CFA00F347
:100CC000B1F800C00CEA03069E4220D183004FF029
:100CD0000F0C0CFA03F7BC4305FA03FC4CEA0404BE
:100CE00091F803C0BCF1280F06D14FF0010C0CFAAB
:100CF00000FCC2F814C00AE091F803C0BCF1480F30
:100D000005D14FF0010C0CFA00FCC2F810C0401CD9
:100D10000828D1D31460B1F800C0BCF1FF0F34DD56
:100D2000546800202EE000F1080C4FF0010808FA8A
:100D30000CF3B1F800C00CEA03069E4221D18300F7
:100D40004FF00F0C0CFA03F7BC4305FA03FC4CEA16
:100D5000040491F803C0BCF1280F05D100F1080C80
:100D600008FA0CF8C2F8148091F803C0BCF1480FDF
:100D700007D100F1080C4FF0010808FA0CF8C2F88E
:100D80001080401C0828CED35460BDE8F081024694
:100D9000002093680B400BB1012000E00020704759
:100DA00002460020D3680B400BB1012000E0002078
:100DB000704741617047016170470AB1016100E00D
:100DC000416170472DE9F04F87B04621D02000F0F7
:100DD000B9F806464521D02000F0B4F806EB00250E
:100DE0002846FFF723FC04464821D02000F0AAF84B
:100DF00006464721D02000F0A5F806EB002528463E
:100E0000FFF714FC82463C21D02000F09BF80646F8
:100E10003B21D02000F096F806EB00252846FFF78E
:100E200005FC83464021D02000F08CF806463F2187
:100E3000D02000F087F806EB00252846FFF7F6FBE8
:100E400006904FF08E412046FFF756FC05D24FF03A
:100E50008F412046FFF7ECF904464FF08E41504693
:100E6000FFF74AFC05D24FF08F415046FFF7E0F9FB
:100E700082464FF08E415846FFF73EFC05D24FF0B8
:100E80008F415846FFF7D4F983464FF08E410698BC
:100E9000FFF732FC05D24FF08F410698FFF7C8F9F3
:100EA000069084F000401E4908600698FFF7EBFBAF
:100EB000074688465846FFF7E6FB3A464346CDE9E3
:100EC000000101F017FE0022164BCDE90201FFF7E9
:100ED000CCFA0546144A154BFFF739FBCDE904015E
:100EE000FFF7E4FB81462046FFF7CDFB05464FF0B8
:100EF00066320F4BFFF72BFB0746FFF7D7FB044685
:100F000084F000452946484600F08EF909480068FB
:100F1000094908600948C0F800A007B0BDE8F08F93
:100F20005C040020008066404AD8124DFB21094035
:100F300066663040680400205804002060040020E9
:100F400000BFFEE770B505460E46002400F030FBFA
:100F5000284600F003FB641C00F06CFB304600F0F8
:100F6000FDFA641C00F066FB00F022FB691CC8B2AD
:100F700000F0F4FA641C00F05DFB002000F006F8BD
:100F8000044600F03FFB204670BD000070B50546EA
:100F90000024002615E04FF480710F48FFF709FF89
:100FA0004FF480710C48FFF706FF6006040E4FF403
:100FB00000710948FFF7EBFE08B1601CC4B2701C59
:100FC000C6B2082EE7DB15B100F06AFA01E000F0C6
:100FD000ADFA204670BD0000000C014010B54FF482
:100FE00080610948FFF7E7FE4FF400610648FFF70C
:100FF000E2FE4FF400610448FFF7DBFE4FF480612E
:101000000148FFF7D6FE10BD000C014010B54FF4AB
:1010100080610748FFF7CFFE4FF400610448FFF7F7
:10102000C8FE4FF400610248FFF7C5FE10BD000086
:10103000000C014010B54FF480610448FFF7BBFE7F
:101040004FF480610148FFF7B4FE10BD000C014071
:101050002DE9F04105462C464FF480611248FFF718
:10106000A8FE00261CE0274607F08007802F04D149
:1010700039010D48FFF79FFE04E04FF400610A4874
:10108000FFF797FE6006040E4FF480610648FFF7F5
:1010900092FE4FF480610448FFF78BFE701CC6B2CD
:1010A000082EE0DBBDE8F081000C014070B505467C
:1010B0000E46144631462846FFF744FF20700120B3
:1010C00070BDF8B506460F4614461D466A463946B9
:1010D0003046FFF7EBFF2DB10120A0409DF8001036
:1010E000084305E00120A0409DF8001021EA00001F
:1010F000C0B200909DF800203946304600F036F826
:10110000F8BD2DE9F8430746884614461D46089E5B
:101110006A4641463846FFF7C9FF28B3601CFF21E5
:1011200001FA00F0C4F108012944491EFF220A41D6
:10113000104300F0FF09C5F1080006FA00F0C6B23E
:10114000C4F1070006419DF8000000EA0900009084
:101150009DF80000304300909DF80020414638463D
:1011600000F004F8BDE8F8830020FBE737B504463B
:101170000D4602AB01222946204600F001F83EBD93
:101180002DE9F04180460D4616461F46002400F02A
:101190000FFA404600F0E2F900F04CFA284600F061
:1011A000DDF900F047FA00BF06E0385D00F0D6F93F
:1011B00000F040FA601CC4B2B442F6DB00F022FA40
:1011C0000120BDE8F081000030B5144800684FF4FC
:1011D0007A72B0FBF2F1B1F1807F00D31DE021F013
:1011E0007F40401E4FF0E022506150170F22002830
:1011F00007DA13071D0E0A4B00F00F04241F1D55BC
:1012000003E013071C0E074B1C5400BF00204FF0D7
:10121000E02290610720106100BF30BD0000002077
:1012200018ED00E000E400E02DE9F04105460C4631
:10123000894801682046FEF7FBFF0746874801689A
:101240003846FEF7FBFF0646854801683046FEF744
:101250009DFF834908608348416883480068FEF722
:10126000E7FF06467F4881683046FEF7E1FF7F4989
:1012700008607C48C06880F0004048607948C068D9
:1012800080F0004088607A480068C8600868734948
:101290000968FEF7D3FF0646724801683046FEF73C
:1012A00075FF70490860714948686C490968FEF724
:1012B000C5FF06466B4841683046FEF767FF69493F
:1012C00048606A49886865490968FEF7B7FF0646BD
:1012D000644881683046FEF759FF62498860634977
:1012E000C8685E490968FEF7A9FF06465D48C168FF
:1012F0003046FEF74BFF5B49C860594801682846F5
:10130000FEF796FF5B4908605B480078FFF797F9A6
:101310000646544801683046FEF790FF574908607A
:1013200055480078FFF78BF906464E4881683046ED
:10133000FEF784FF524908604F480078FFF77FF9B5
:1013400007464E4801683846FEF778FF06464D4886
:1013500001683046FEF71AFF4B49086008460168ED
:1013600046480068FEF79CFF484908604648016807
:1013700043480068FEF794FF454908603F4800680D
:10138000444908603C480078FFF759F9064635485B
:1013900041683046FEF752FF3F4908603D4801680A
:1013A0003A480068FEF74AFF06462E480168304674
:1013B000FEF741FF2B490860374801683348006851
:1013C000FEF73CFF0646274841683046FEF733FFEC
:1013D000244948602F4801682D480068FEF72EFF19
:1013E0000646204881683046FEF725FF1D49886083
:1013F0002948016826480068FEF720FF064619487C
:10140000C1683046FEF717FF1649C86019480168E1
:101410001E480068FEF712FF064611480168304674
:10142000FEF7B4FE0E4908601248016818480068CB
:10143000FEF704FF0646084801683046FEF7A6FEA0
:1014400005490860084601682046FEF7F1FE134989
:101450000860BDE8F0810000840400207C040020C6
:1014600068040020A804002070040020CC040020A0
:101470007404002088040020800400208C040020D4
:101480009004002078040020940400209804002098
:101490009C040020A0040020A40400206C04002070
:1014A00010B54FF480710948FFF783FC4FF40071C9
:1014B0000648FFF77EFC4FF480710448FFF77BFC81
:1014C0004FF480710148FFF774FC10BD000C01401F
:1014D00008B50121082000F009FA4FF40070ADF8BA
:1014E000000003208DF8020014208DF803006946E7
:1014F0000D48FFF7C1FB4FF48070ADF800000320EA
:101500008DF8020010208DF8030069460648FFF7A9
:10151000B3FB4FF480710448FFF74DFC4FF40071AA
:101520000148FFF748FC08BD000C014010B54FF41E
:1015300080710948FFF73DFC4FF400710648FFF742
:101540003AFC4FF480710448FFF735FC4FF480718A
:101550000148FFF72EFC10BD000C014070B5044699
:101560004FF480711148FFF724FC00251AE0E009D0
:1015700028B14FF400710D48FFF71DFC04E04FF453
:1015800000710A48FFF715FC6006040E4FF48071E5
:101590000648FFF710FC4FF480710448FFF709FC80
:1015A000681CC5B2082DE2DB70BD0000000C0140D4
:1015B00010B54FF400711248FFF7FDFB4FF40071B6
:1015C0000F48FFF7E4FB08B9002010BD4FF480710D
:1015D0000B48FFF7F0FB4FF400710948FFF7E9FBF8
:1015E0004FF400710648FFF7D2FB08B10020ECE78A
:1015F0004FF480710248FFF7DCFB0120E5E70000B3
:10160000000C014010B54FF480710948FFF7D1FB81
:101610004FF400710648FFF7CCFB4FF4807104488B
:10162000FFF7C9FB4FF400710148FFF7C4FB10BD81
:10163000000C014010B500244FF400710F48FFF773
:10164000BAFB4FF480710D48FFF7B5FB07E0601C53
:10165000C4B2322C03DDFFF7D5FF002010BD4FF4DC
:1016600000710648FFF793FB0028F0D14FF480711A
:101670000248FFF79EFB0120F0E70000000C01404C
:1016800010B5FFF725FF022000F010F8022000F04F
:1016900021F8002000F014F8002000F037F80020B6
:1016A00000F02BF8002000F01FF810BD38B50446FC
:1016B000032302226B21D0200094FFF722FD38BDC6
:1016C00038B50446022304221C21D0200094FFF7E1
:1016D00018FD38BD38B50446022304221B21D02052
:1016E0000094FFF70EFD38BD10B5044623460122D5
:1016F0003721D020FFF7E5FC10BD10B50446234686
:1017000005226A21D020FFF7DCFC10BD10B504468D
:10171000234606226B21D020FFF7D3FC10BD00BF6B
:10172000FEE710B500F0D6F900F00CFA10BD00008D
:1017300008B50121082000F0D9F84FF44040ADF879
:10174000000003208DF8020010208DF80300694688
:101750000F48FFF791FA4FF44050ADF8000069468A
:101760000B48FFF789FA4FF480410948FFF721FB46
:101770004FF400410648FFF71CFB4FF400510448AA
:10178000FFF717FB4FF480510148FFF712FB08BD2C
:10179000000C014070B505460C464DB94FF4804130
:1017A0002548FFF706FB4FF400412348FFF701FBF4
:1017B0004CB94FF400512048FFF7FBFA4FF4805129
:1017C0001D48FFF7F6FA002D0ADA4FF480411A4857
:1017D000FFF7F1FA4FF400411748FFF7EAFA09E082
:1017E0004FF480411448FFF7E4FA4FF400411248E7
:1017F000FFF7E1FA284601F00DFC10490880002CA3
:1018000009DA49140C48FFF7D6FA4FF480510A4818
:10181000FFF7CFFA09E04FF400510748FFF7C9FA84
:101820004FF480510448FFF7C6FA204601F0F2FB5E
:101830000249091F088070BD000C014040040040AF
:101840007047000070B5002100230F22C47804B354
:10185000154C246804F4E064C4F5E064210AC1F185
:101860000403CA40447804FA03F184781440214305
:1018700009010E4C0678A155047804F01F050124D7
:10188000AC4005786D11AD0005F1E025C5F80041CB
:1018900009E0047804F01F050124AC40044D0678EB
:1018A000761145F8264070BD0CED00E000E400E044
:1018B00080E100E002490143024A116070470000E4
:1018C0000000FA050CED00E07047000029B1064A5F
:1018D000D2690243044BDA6104E0034AD2698243CD
:1018E000014BDA61704700000010024029B1064A3E
:1018F00092690243044B9A6104E0034A926982436D
:10190000014B9A617047000000100240704710B50B
:1019100000F002F810BD00000CB50020019000900E
:101920003348006840F480303149086000BF3048D7
:10193000006800F4003000900198401C019000986D
:1019400018B90198B0F5A06FF1D12948006800F4EA
:10195000003010B10120009001E0002000900098BC
:10196000012843D12348006840F010002149086055
:101970000846006820F0030008600846006840F050
:10198000020008601A4840681949486008464068E3
:1019900048600846406840F48060486008464068F7
:1019A00020F47C1048600846406840F4E810486025
:1019B0000846006840F08070086000BF0C4800686E
:1019C00000F000700028F9D00948406820F00300BA
:1019D000074948600846406840F00200486000BF80
:1019E0000348406800F00C000828F9D10CBD000045
:1019F00000100240002002400348006802480068CE
:101A0000401C0149086070474004002010B513488D
:101A1000006840F00100114908600846406810491C
:101A200008400E494860084600680E4908400B49C6
:101A300008600846006820F4802008600846406876
:101A400020F4FE0048604FF41F008860FFF75FFF3E
:101A50004FF000600449086010BD00000010024013
:101A60000000FFF8FFFFF6FE08ED00E010B50024CF
:101A70001348008800F0010008B31148008820F0E6
:101A800001000F49088001F0CDFAFFF79BF90D48DE
:101A900001680D48006801F0EDF80C4908600C4938
:101AA00009480068FEF71EFE05D208480168006874
:101AB000FFF770FE03E000210846FFF76BFE10BD44
:101AC000102C01405C040020580400204404002035
:101AD00000000C4208B501210220FFF7F7FE0121AA
:101AE0000C20FFF703FF0320ADF8000018208DF84D
:101AF000030003208DF8020069460248FFF7BCF896
:101B000008BD0000000C014010B501210B4800F099
:101B10007AF888B10121094800F066F84FF40041D5
:101B20000748FFF73DF9C0F10100C4B222464FF467
:101B300000410348FFF741F910BD000000040040D8
:101B4000000C014030B587B04FF4AF752C46012131
:101B50000220FFF7BBFE40F60F60ADF81400002036
:101B6000ADF81000ADF81600ADF8120004A9174842
:101B700000F00AF96020ADF800000821134800F0D9
:101B800053F80120ADF80200ADF8065069460F4841
:101B900000F054F808210D4800F0A0F80120ADF83D
:101BA0000200ADF806406946084800F0A1F8082197
:101BB000064800F0DBF80121044800F009F8012193
:101BC000024800F014F807B030BD000000040040E7
:101BD00021B1028842F08002028004E002884FF6C0
:101BE0007F731A4002807047CA430282704721B156
:101BF000028842F00102028004E002884FF6FE7380
:101C00001A400280704730B50246002000230024AD
:101C1000158A05EA0103958905EA010413B10CB19F
:101C2000012000E0002030BD0A460021018B4FF664
:101C3000F7731940114301837047000070B5002409
:101C400000220023058C4FF6FF6635400584028C88
:101C50008388848B4FF68F752C404FF6FC752C4093
:101C60000D882C434FF6FF552A400D894FF6FF761D
:101C700006EA05252A434D8806EA05252A43154D1F
:101C8000A84202D0144DA8421DD14FF2FF752A4040
:101C90004D894FF6FF7606EA05252A434FF6FF35B4
:101CA0002A408D8806EA05252A434EF6FF752B400B
:101CB0004DF6FF752B408D8906EA05152B43CD891E
:101CC00006EA05152B4383808483CD8885870284AB
:101CD00070BD0000002C0140003401400A46002184
:101CE000818B4FF6F77319401143818370470000D1
:101CF00070B5002200230024058C4EF6FF76354097
:101D00000584038C8488828B48F6FF752A404FF641
:101D1000FF452A400D884FF6FF7606EA05252A433F
:101D20004DF6FF752B400D8906EA05352B434D888E
:101D300006EA05352B430B4DA84202D00A4DA842B6
:101D400008D14BF6FF752C408D894FF6FF7606EAD9
:101D500085152C4384808283CD88A0F8405003846D
:101D600070BD0000002C0140003401400A460021F3
:101D7000818B4FF2FF7319404FF6FF7303EA022382
:101D80001943818370470000002202881D4B98424E
:101D90000ED01D4B98420BD0B0F1804F08D01B4B9A
:101DA000984205D01A4B984202D01A4B984204D15F
:101DB0004FF68F731A404B881A43174B984207D03F
:101DC000164B984204D04FF6FF431A40CB881A4373
:101DD00002808B8883850B8803850A4B98420BD041
:101DE000094B984208D00E4B984205D00D4B9842B3
:101DF00002D00D4B984201D10B7A038601238382D6
:101E000070470000002C01400034014000040040F5
:101E100000080040000C004000100040001400408A
:101E200000400140004401400048014038B50546EB
:101E30000C461948806940F40060174988611748CA
:101E40000580001F048015482038008840F00100FC
:101E50001249203908800846008840F04000088078
:101E60000E482C38008840F001000C492C390880BD
:101E70004FF4C060FFF71EFD19208DF80000002010
:101E80008DF801008DF8020001208DF803006846EE
:101E9000FFF7D8FC38BD0000001002402C2C014098
:101EA00000BFFEE770B506460C461546FFF796F8EC
:101EB0003046FFF7CDF8FFF7BDF82046FFF7C8F82A
:101EC000FFF7B8F82846FFF7C3F8FFF7B3F8FFF7B6
:101ED0009DF870BD70B506460C461546FFF77EF8B6
:101EE0003046FFF7B5F8FFF7A5F82046FFF7B0F842
:101EF000FFF7A0F82846FFF7ABF8FFF79BF8FFF7CE
:101F000085F870BD0FB4084B10B504A902AA039858
:101F100000F044F9044602A9002000F0D6FC204657
:101F200010BC5DF814FB0000CB280008490050EA03
:101F3000C12018BF04204A0D18BF40F0010040F234
:101F4000FF72B2EB515F08BF40F00200012808BFEA
:101F5000052070472DE9F0414F1E00EBC7010446F4
:101F6000D1E9000115461E4637F006020DD02A467B
:101F70003346FEF77AFA7F1E04EBC703D3E900234A
:101F8000FEF7CCF937F00602F1D1022F25D0042F4D
:101F900013D0062F18BFBDE8F0812A463346FEF75E
:101FA00064FAD4E90A23FEF7B9F92A463346FEF764
:101FB0005CFAD4E90823FEF7B1F92A463346FEF766
:101FC00054FAD4E90623FEF7A9F92A463346FEF768
:101FD0004CFAD4E90423FEF7A1F92A463346FEF76A
:101FE00044FAD4E90223FEF799F92A463346FEF76C
:101FF0003CFAD4E90023BDE8F041FEF78FB9012295
:10200000FEF790BCFEF78AB9024A00201107FEF7DE
:1020100089BC000001FDFFFF02E008C8121F08C1D3
:10202000002AFAD170477047002001E001C1121F59
:10203000002AFBD1704700002DE9FF5FDDE9022097
:10204000010DDDF838B0024318D044F61050A1F26B
:10205000FF3141430D140F98012820D0A5EB0B0050
:10206000401C5FEA000A4FF00004474EDFF81C9165
:10207000A046504616D5CAF1000728E00F98012463
:1020800043A2012808D0002100980F9BC0E900213D
:10209000C0E90243BDE8FF9F6FEA0B01F4E7CBF113
:1020A0000000DEE7074612E0F80707D02246334675
:1020B00040464946FEF7D9F98046894622463346CE
:1020C00010461946FEF7D1F904460E467F10002F40
:1020D000EAD1DDE90201BAF1000F42464B4602DACD
:1020E000FEF7C3F901E0FEF732FA04460E4600227D
:1020F000284BFEF747FC03D84FF0FF30014607E0BE
:102100000022254B20463146FEF708F9FEF721FC58
:10211000102409E0002C0ADB0A220023FEF70CFB46
:10212000019B30321A55641E50EA0102F2D1641C40
:10213000019AC4F1110314440F9A012A03D0012219
:1021400008430DD10AE0084304D000204FF0110BE2
:102150000F9080E7A3EB0B056D1E0DE05B4504DDE2
:102160004FF0000205F1010504E003DA4FF0000230
:10217000A5F10105002AECD000980F99C0E90231C1
:10218000C0E9004586E70000000024400000F03F61
:10219000300000000000F0430000E03F2DE9FF4F59
:1021A00095B09B468946064600250FE2252877D143
:1021B00000242746F84A0121059400E0044316F85C
:1021C000013F203B01FA03F01042F7D130782A2872
:1021D00011D06FF02F033078A0F13002092A16D801
:1021E000059A44F0020402EB820203EB420210441F
:1021F000761C0590EFE759F8042B0592002A03DAC4
:10220000504244F40054059044F00204761C3078A7
:102210002E2816D116F8010F44F004042A280DD0F8
:102220006FF02F023078A0F13003092B09D807EBAB
:10223000870302EB4303C718761CF3E759F8047BC6
:10224000761C30786C280FD006DC4C2817D0682814
:102250000DD06A2814D104E0742810D07A280FD148
:102260000DE044F400140AE044F4801401E044F466
:1022700040147278824202D104F58014761C761CD8
:10228000307866280BD013DC582877D009DC00287A
:1022900075D04528F6D04628F4D047281AD19DE1BC
:1022A00018E0632835D0642879D0652812D195E1EB
:1022B000702873D008DC6728F1D069286FD06E28A9
:1022C0000DD06F2806D1B5E073282CD0752875D0B5
:1022D000782874D05A46179990476D1C75E1C4F35D
:1022E0000250022809D003280DD0D9F80010042884
:1022F0000DD00D6009F1040967E1D9F80010EA1763
:10230000C1E90052F6E7D9F800100D80F2E70D7030
:10231000F0E719F8041B8DF8001000208DF801007B
:10232000EA46012003E059F804AB4FF0FF306107A3
:102330004FF0000102D40DE008F101018846B942D6
:102340000FDA8045F8DB1AF808100029F4D108E00C
:1023500008F1010188468142FADB1AF808100029C9
:10236000F6D105985B46A0EB080721463846179A38
:1023700000F094FA284400EB080507E04DE029E15D
:102380000DE01AF8010B5A4617999047B8F1010869
:10239000F7D25B4621463846179A13E142E00A22FB
:1023A0000092C4F302524FF0000A022A08D059F8F2
:1023B00004CB032A4FEAEC710AD00DE029E02AE0B1
:1023C00009F1070121F00702F2E802C1914609E094
:1023D0000FFA8CFC4FEAEC71042A03D14FFA8CFC03
:1023E0004FEAEC71002907DA0A460021DCF1000C03
:1023F00061EB02012D2202E0220504D52B228DF88B
:102400000420012203E0E20701D02022F7E79046F2
:1024100059E00A2102E010220DE010214FF0000ADD
:1024200000910BE010224FF0000A44F0040408274A
:10243000009203E008224FF0000A0092C4F3025217
:10244000022A05D059F804CB0021032A08D009E05C
:1024500009F1070121F00702F2E802C1914605E007
:102460001FFA8CFC042A01D10CF0FF0C4FF000087D
:10247000220728D5702806D0009B83F0100353EA6A
:102480000A0305D00EE040228DF80420012208E066
:102490005CEA010206D030228DF804208DF8050098
:1024A00002229046009B83F0080353EA0A030AD1F4
:1024B0005CEA010201D1620705D530228DF80420C3
:1024C0004FF001087F1E582804D034A003900EA8B6
:1024D00002900DE036A0F9E753466046009AFEF7F9
:1024E0002BF984460398825C0298401E0290027089
:1024F0005CEA0100F0D1029806A9081A00F1200A4E
:10250000600702D524F4803400E00127574502DD3E
:10251000A7EB0A0000E0002000EB0A0100900598FC
:102520004144401A0590E00306D45B462146179AC1
:10253000059800F0B3F90544002706E001A85A46C3
:10254000C05D179990476D1C7F1C4745F6DBE00383
:102550000CD55B462146179A059800F09FF9054473
:1025600004E030205A46179990476D1C0099481E88
:1025700000900029F5DC08E0029802995A4600789C
:10258000491C0291179990476D1CBAF10001AAF1FC
:10259000010AF1DC65E10000092801003031323325
:1025A000343536373839616263646566000000008F
:1025B0003031323334353637383941424344454679
:1025C0000000000000F058F90544761C307800281F
:1025D0007FF4ECAD19B02846BDE8F08F620700D457
:1025E000062709F1070222F0070CFCE80223E14666
:1025F00003F000485FEA080C02D00FF2702C0DE0E7
:102600005FEA045C02D50FF2682C07E05FEAC47C45
:1026100002D00FF2602C01E0AFF2700C4FF0FF38E7
:1026200023F00043CDF850C065280CD006DC4528C7
:1026300009D046281DD047283DD13DE0662818D056
:1026400067287ED138E00021112F01DB112000E046
:10265000781CCDE9000106A90EA8FFF7EDFCDDE925
:102660000F010E9A03910021009207F1010A0491D3
:102670004DE04FF000400097CDE9011006A90EA8EB
:10268000FFF7DAFCDDE90F0203920E9B119900229D
:10269000DDF80CA00093049211B9791C00EB010A3B
:1026A000B7EB0A0004D4C0F1FF3007F1010A04902F
:1026B000AAEB0700019044E0012F00DA0127002176
:1026C000112F01DD112000E03846CDE9000106A9F7
:1026D0000EA8FFF7B1FCDDE90F010E9A039100216E
:1026E00004910092BA4621070CD40399514500DAAF
:1026F0008A46BAF1010F05DD009AAAF10101515C89
:10270000302908D0B84202DA10F1040F06DA0121AC
:10271000CDE9011015E0AAF10101E9E7002805DC87
:10272000049901440491AAEB000102E0411C5145C7
:1027300000DD8A460499401A401C01904FF0004089
:102740000290200704D40198504501DBCDF80480A5
:1027500000208DF84F0002980DF14F07B0F1004FA7
:1027600025D02B200E9002984FF0020800280CDA9A
:10277000404202902D200E9007E00A210298FDF7BA
:10278000C5FF3031029007F8011DB8F10001A8F132
:102790000108F2DC02980028EFD1791E0E9808702B
:1027A000307800F0200040F0450007F8020D12A834
:1027B000C01B00F107081498007800B1012000EB5D
:1027C0000A01019801EBE07105984144401A401E4E
:1027D0000590E00306D45B462146179A059800F061
:1027E0005DF805441498007818B15A461799904737
:1027F0006D1CE00324D55B462146179A059800F02E
:102800004DF805441CE00498002807DBDDE90301CE
:10281000884203DD0098405C179901E01799302049
:102820005A469047049805F10105401C0490019810
:10283000401E019004D12E205A46179990476D1CD6
:10284000BAF10001AAF1010ADDDC05E017F8010B7D
:102850005A46179990476D1CB8F10001A8F101087C
:10286000F4DC5B462146179A0598ABE62D00000084
:102870002B000000200000002DE9F0410446002557
:102880001E461746880404D405E039462020B04788
:102890006D1C641EF9D52846BDE8F0812DE9F04194
:1028A000044600251E469046C80301D5302700E0A7
:1028B0002027880404D505E041463846B0476D1C02
:1028C000641EF9D52846BDE8F0810A68531C0B60E8
:1028D000107070472DE9F84F04460D4621F0004076
:1028E00000917349814211DC7249884201DC06D1B2
:1028F0002CB120462946BDE8F84FFFF780BB6E4853
:10290000002DCCBF6D496E49BDE8F88F6D498142FD
:1029100011DD6D498142D8BF4FF0FF366DDD204695
:102920002946FFF703FB042808BFFFF76DFB20468D
:102930002946BDE8F88F6549654F25F0004581427D
:1029400033DD6449814219DD002632464FF0804371
:1029500020462946FDF7E2FC80468A4601222046B1
:102960002946FDF7DFFF00223B46FDF778FD424692
:102970005346FDF7ECFD04460D463EE001260022DD
:10298000BA463B4620462946FDF7C8FC80460F461E
:102990000022534620462946FDF761FD42463B464C
:1029A000FDF7D5FD04460D4627E04B4981421BDD6E
:1029B000DFF828A102260022534620462946FDF7CB
:1029C00054FD00223B46FDF7A9FC80460F4600223D
:1029D000534620462946FDF742FD42463B46FDF759
:1029E000B6FD04460D4608E0032622462B4600208D
:1029F0003B49FDF7ACFD04460D4622462B461046EA
:102A00001946FDF732FD8B46824602460B46FDF71E
:102A10002CFD07460246334888460B46062178447B
:102A2000FFF798FA52465B46FDF71FFD82462E4897
:102A30008B463A46434605217844FFF78BFA3A46DF
:102A40004346FDF712FD02460B46002E50465946FE
:102A50000CDAFDF763FC22462B46FDF706FD01B0BC
:102A600022462B46BDE8F04FFDF7FCBCFDF756FCB7
:102A700022462B46FDF7F9FC1C4A7A4402EBC603BA
:102A8000D3E90023FDF7EBFC22462B46FDF7E7FCDC
:102A9000174A7A4402EBC603D3E90023FDF7E2FCB0
:102AA000009A002AB8BF81F00041BDE8F88F00000D
:102AB000000010440000F07F182D4454FB21F93F22
:102AC000FB21F9BF0000DC3F0000203E0000F33F87
:102AD0000000F03F0000E63F008003400000F83FA8
:102AE0000000F0BF7614000034140000D213000080
:102AF0009A1300002DE9F04D9446CCF1000423F028
:102B000000464CEA0404524F46EAD4749A4688467A
:102B100021F00042BC4206D8454240EA050442EAA0
:102B2000D474BC4204D9BDE8F04D6246FFF76ABADE
:102B3000AAF14055A5F17F6555EA0C040BD002249B
:102B400004EAAA74434DDFF810E144EAD87452EA6B
:102B5000000B04D00CE0BDE8F04DFFF7BBBE002C2D
:102B600014BF012CBDE8F08D022C30D0032C32D0E4
:102B700056EA0C0B0AD0BE4220D1BA4209D126F047
:102B8000804622F080423346114617E000291ADBC6
:102B900025E0DFF8C8B0FB44002C04BFDBE90001EE
:102BA000BDE8F08D012C02BFDBE9000181F000419E
:102BB000BDE8F08D022C0AD0032C0CD0BA4212D101
:102BC000B8F1000F0BDA23482549BDE8F08D2846FF
:102BD0002449BDE8F08D28467146BDE8F08D1D48BA
:102BE0002149BDE8F08D921B12153C2AC4BF19483B
:102BF0001D490EDCBAF1000FBEBF12F13C0F0020E0
:102C0000014606DB6246FDF7A2FC21F00041FFF71A
:102C100061FE002C08BFBDE8F08D012C04BF81F0DF
:102C20000041BDE8F08D114A114B022C07D0FDF791
:102C300016FC2A46BDE8F04D0A4BFDF710BCFDF727
:102C40000EFC2A46BDE8F04D064BFDF70BBC00001C
:102C50000000F07F182D4454FB2109C02E13000002
:102C6000FB21F9BFFB210940FB21F93F075C14332D
:102C700026A6A13C2DE9FF5F83468A465846FDF70C
:102C800002FD064600224FF08043FDF7E8FB0446B4
:102C9000FDF70CFD03905046FDF7F5FC06460022BB
:102CA0004FF07F53FDF7E1FB804689460A480399C0
:102CB000FDF7C4FA0646FDF7E6FC42464B46CDE971
:102CC0000001FDF72BFB0446FDF7BEFC02900298C5
:102CD00004B0BDE8F09F000000006B4301B505495A
:102CE000086800BF03490968091A009A9142F9D39C
:102CF00008BD0000400400202DE9F04F8FB00546CC
:102D00000E4690469946199C0020049003908A48EC
:102D1000006800287ED18948B0F90000854210DAA9
:102D20008748B0F9000086420BDA062000FB045009
:102D3000401E002805D4082000FB0460401E002827
:102D400002D50FB0BDE8F08F7E48007830B9B8F1F9
:102D5000B00F03DB08F1010000F0FF0800F064FC95
:102D600000274AE008EB880038447749085C029065
:102D70004FF0000A3CE0029800F00100B8B1012CCD
:102D800008D106EB0A0211B2EA1910B24A4600F065
:102D9000AEFD26E00AFB046211B207FB045210B23A
:102DA00023462246CDF8009000F028FD19E018983F
:102DB000484516D0012C08D106EB0A0211B2EA19D7
:102DC00010B2189A00F093FD0BE018980AFB046209
:102DD00011B207FB0452009010B22346224600F0C5
:102DE0000DFD0AF101004FFA80FA0298401002909E
:102DF000BAF1080FBFDB781C47B2052FB2DB189879
:102E0000484516D0012C09D108223146681D00B270
:102E1000189B00E010E000F0E3FC0AE01898E300E3
:102E2000052101FB0451009008B22246314600F012
:102E3000E5FC00F09EF87DE03F480068007AA8EBD2
:102E4000000000F0FF083C480068406800EBC80B39
:102E50003948006800680E90BBF800000D909BF8A0
:102E600002000C909BF803000B909BF8050040B209
:102E70000A909BF8060040B2099000200690059049
:102E800004900390012C03DD0A98049009980390A4
:102E900000F0CAFB0020079046E0002008903BE0CD
:102EA0000598411CC9B200F00700059130B90D9892
:102EB000411C89B20D910E99085C0690069800F0AD
:102EC000800008B3012C0DD1099AB318079A1A444F
:102ED00011B20A9AAB18089A1A4410B24A4600F086
:102EE00006FD11E0CDF80090079B039A1A4402FBFF
:102EF000046211B2089B049A1A4402FB045210B2F5
:102F00002346224600F07AFC06984006000E069002
:102F10000898401CC0B208900C9908988842BFDB02
:102F20000798401CC0B207900B9907988842B4DB01
:102F300000F01FF800BF04E7240000201400002068
:102F4000160000202300002030390008F8B50446A0
:102F50000D4616461F4600F067FBA819401E03B237
:102F6000224629462046009700F05AFC00F001F85E
:102F7000F8BD70472DE9F0470446884616461F46BF
:102F8000DDF8209000F050FB254607E04B463A461E
:102F90004146284600F024FC681C05B2A019A8424E
:102FA000F4DCFFF7E6FFBDE8F08700000148007899
:102FB00070470000210000200148B0F90000704770
:102FC00016000020FEF700F90123042278210220D8
:102FD00000F0E2F8012000F05BF840218020FDF7CE
:102FE00027FD00F01DFA4FF4FA60FFF777FEFEF7B9
:102FF00047FBFEF796FBFEF79BFBFDF75BFDFDF73E
:10300000BDFD41F61F416320FEF710FF01E000F017
:1030100085F8FCE70146002901DA484200E008464D
:1030200070470000124A10880022114B1A801A07BC
:10303000918C00221B079A84B1F5004F05DDA1F5A4
:103040007D42E83A0B4B1A6001E00A4A1160B0F584
:10305000004F05DDA0F57D42E83A074B1A6001E01C
:10306000054A1060034A12685242024B1A607047C8
:10307000240800405004002054040020024A10801C
:10308000024A118070470000180000201A0000203A
:1030900000F00301124A11701146097831B101297B
:1030A00010D0022903D0032918D10CE000BF0D492C
:1030B000098809B20C4A11800C49098809B20C4AE6
:1030C00011800BE000BF0949098809B2064A118046
:1030D0000449098809B2064A118000BF00BF704741
:1030E0002100002028000020140000202A000020D9
:1030F000160000200249088002490880704700003D
:103100001E0000201C000020002801DD014600E018
:103110000121014A117070472000002000B587B0DE
:103120000120FFF7F1FF0120FFF7E4FF002108462F
:10313000FFF7A4FF0CA000F0E4FB1148006800902A
:1031400010480368104811A1026802A8FEF7DAFED1
:1031500002A800F0D6FB00F063F90320FFF7BEFDE4
:1031600000F014F907B000BD41524D5F47465820AA
:103170004C6962726172792074657374000000009A
:1031800054040020500400204404002025640A2533
:10319000640A25640A000000F8B504460D46174687
:1031A0001E4675480770754804707548057072486A
:1031B0000078022836D101210C20FEF797FB02206F
:1031C000ADF8000010208DF8030003208DF80200F8
:1031D00069466C48FDF750FD1020ADF800008DF8F1
:1031E000030003208DF8020069466748FDF744FD9F
:1031F0002020ADF8000010208DF8030003208DF88A
:10320000020069466048FDF737FD8020ADF80000F8
:1032100010208DF8030003208DF8020069465A48FB
:10322000FDF72AFD5448007801281FD0012108200D
:10323000FEF75CFB4FF48060ADF8000010208DF8C5
:10324000030003208DF8020069464E48FDF714FD87
:103250004FF40060ADF8000010208DF8030003204B
:103260008DF8020069464748FDF706FD16B342484F
:10327000007804281ED00120ADF8000010208DF841
:10328000030003208DF8020069463E48FDF7F4FC78
:1032900001213C48FDF78FFD0120FFF71FFD0121B3
:1032A0003848FDF786FD0A20FFF718FD0121354853
:1032B000FDF781FDAE2000F073F8D52000F070F826
:1032C000802000F06DF8A82000F06AF83F2000F0A0
:1032D00067F8D32000F064F8002000F061F8402087
:1032E00000F05EF88D2000F05BF8012C03D1102077
:1032F00000F056F802E0142000F052F8202000F010
:103300004FF8002000F04CF8A12000F049F8C82048
:1033100000F046F8DA2000F043F8122000F040F800
:10332000812000F03DF8012C03D19F2000F038F8F7
:1033300002E0CF2000F034F8D92000F031F8012C61
:1033400003D1222000F02CF802E0F12000F028F850
:10335000DB2000F025F8402000F022F8A42000F047
:103360001FF8A62000F01CF82E2000F019F8AF205E
:1033700000F016F8F8BD00002C0000202D00002001
:103380002E000020000C01400008014010B54FF451
:1033900080610248FCF7EFFE10BD00002F00002006
:1033A00070B504461A480078012810D10221194846
:1033B000FDF7FFFC10211848FDF7FBFC1021164813
:1033C000FDF7F9FC02211348FDF7F5FC1EE010485B
:1033D0000078022813D110210F48FDF7ECFC0221E0
:1033E0000C48FDF7E6FC10210B48FDF7E2FC2046F7
:1033F00000F0F6F810210848FDF7DDFC06E0002596
:103400002246294605480078FEF74CFD70BD0000B5
:103410002C000020000C0140000801402E0000207C
:1034200070B540252120FFF7BBFF0020FFF7B8FF54
:103430007F20FFF7B5FF2220FFF7B2FF0020FFF744
:10344000AFFF0720FFF7ACFF19480078012803D031
:103450001748007802281BD110211648FDF7ABFC55
:1034600002211548FDF7A7FC10211248FDF7A1FC29
:10347000002405E01149085D00F0B2F8601C84B238
:10348000B4F5806FF6DB10210A48FDF794FC0DE0DF
:10349000002408E00948025D294609480078FEF743
:1034A00019FD601C84B2B4F5806FF3DB70BD0000C1
:1034B0002C00002000080140000C01402F000020DB
:1034C0002E00002070B505460C461646002D09DB7F
:1034D00000F0ACF8A84205DD002C03DBFFF76CFD23
:1034E000A04200DC70BDFFF761FD012804D0022876
:1034F0000BD003281DD113E0284625460446354845
:103500000088401B401E05B213E032480088401B73
:10351000401E05B230480088001B401E04B208E07F
:103520002846254604462C480088001B401E04B24D
:1035300000BF00BFE6B1012E02D0022E47D12EE01F
:10354000E11704EB5171C91005EBC111234A515C1D
:1035500004F0070301229A401143CAB22046E11742
:1035600004EB5171C91005EBC1111C4B5A542EE0EC
:10357000E11704EB5171C91005EBC111174A515CF9
:1035800004F0070301229A4091432046E21704EB1E
:103590005272D21005EBC212104B995417E0E1178A
:1035A00004EB5171C91005EBC1110C4A515C04F0D8
:1035B000070301229A405140CAB22046E11704EBAA
:1035C0005171C91005EBC111044B5A5400BF00BF23
:1035D00000BF87E7280000202A0000202F000020DD
:1035E00070B505460E480078012818D0802414E0F4
:1035F00020210C48FDF7DDFB05EA040020B1802105
:103600000848FDF7D8FB03E080210648FDF7D1FB11
:1036100020210448FDF7CFFB6410002CE8D170BDD9
:103620002C00002000080140704700000148B0F95C
:1036300000007047140000202DE9FC470446604854
:103640000068002849D10A2C0BD15E4908805E48E9
:1036500000785E49098801EBC00000B25B49088030
:10366000ABE00D2CFCD05A480078C8B15648007821
:1036700000EB40005349B1F9001001EB40005549FF
:10368000B1F9001088420BDD00204E4908804E48F9
:1036900000784E49098801EBC00000B24B49088010
:1036A000494800784C490988CDE900104B48038807
:1036B00022464648B0F900104248B0F90000FFF732
:1036C0001BFB4148007800EB40003E49098801EBB4
:1036D000400000B23B4908806FE00A2C10D1002066
:1036E0003849088036480068807A3849B1F90010B6
:1036F000354A127802FB001000B2344908805CE0C1
:103700000D2C5AD02E480068067AB44254DB2C485F
:103710000068407AA0424FDB294800684068A11B3E
:1037200000EBC105AF7895F80380002F38DDB8F1C4
:10373000000F35DD68794FFA80F925480078E8B147
:1037400009EB07001F49B1F900101F4A127802FB6C
:1037500000102049B1F9001088420FDD00201949FE
:10376000088017480068817A1848B0F90000164AA6
:10377000127802FB010000B2144908801248007858
:1037800015490988CDE900101448038822460F48DE
:10379000B0F900100B48B0F90000FFF7ADFA00BF18
:1037A000287909490978074AB2F9002000FB01206D
:1037B00000B20449088000BF00BFBDE8FC870000DC
:1037C0002400002018000020200000201A00002003
:1037D00022000020140000201E0000201C000020F9
:1037E0002DE9F04104460D4616461F463B4632463B
:1037F00029462046FFF7AAFBBDE8F0812DE9F843F2
:1038000004460D4616461F46DDF820803B463246EC
:1038100029462046CDF80080FFF7ACFBBDE8F883D1
:103820002DE9F84F04460D4616461F46791B002920
:1038300001DB0A4600E04A42301B002801DB034658
:1038400000E043429A4201DD012200E0002293465B
:10385000404608EBD07149100FFA81F9BBF1000F17
:1038600006D020462C46054630463E46074600BF59
:10387000B44206DD20463446064628463D46074605
:1038800000BF301B0FFA80F8781B002801DB0146CF
:1038900000E0414209B20091BD4202DA4FF0010A54
:1038A00001E04FF0FF3A1EE0BBF1000F05D02146CA
:1038B00028460A9A00F01BF804E0294620460A9A96
:1038C00000F015F80098A9EB00000FFA80F9B9F1A3
:1038D000000F06DA05EB0A0005B209EB08000FFA43
:1038E00080F9601C04B2B442DEDDBDE8F88F70B52B
:1038F00004460D461646324629462046FFF7E2FDAD
:1039000070BD2DE9F04105460026002700BF0BE001
:103910003846791CCFB22C5C2046FFF78DFE0CB9DF
:10392000BDE8F081701CC6B21E2EF1DB00BFF7E7C8
:1039300000000000003E5B4F5B3E3E6B4F6B3E1C49
:103940003E7C3E1C183C7E3C181C577D571C1C5E60
:103950007F5E1C00183C1800FFE7C3E7FF00182437
:103960001800FFE7DBE7FF30483A060E26297929E1
:1039700026407F050507407F05253F5A3CE73C5A16
:103980007F3E1C1C08081C1C3E7F14227F22145FF3
:103990005F005F5F06097F017F006689956A60604E
:1039A00060606094A2FFA29408047E040810207E48
:1039B000201008082A1C08081C2A08081E101010CD
:1039C000100C1E0C1E0C30383E3830060E3E0E0613
:1039D000000000000000005F000000070007001466
:1039E0007F147F14242A7F2A122313086462364925
:1039F0005620500008070300001C2241000041220D
:103A00001C002A1C7F1C2A08083E08080080703011
:103A10000008080808080000606000201008040280
:103A20003E5149453E00427F400072494949462186
:103A300041494D331814127F1027454545393C4AFA
:103A40004949314121110907364949493646494911
:103A5000291E000014000000403400000008142259
:103A600041141414141400412214080201590906C7
:103A70003E415D594E7C1211127C7F494949363EC8
:103A8000414141227F4141413E7F494949417F09AE
:103A90000909013E414151737F0808087F00417FB9
:103AA00041002040413F017F081422417F404040B7
:103AB000407F021C027F7F0408107F3E4141413E4F
:103AC0007F090909063E4151215E7F0919294626D1
:103AD0004949493203017F01033F4040403F1F20D5
:103AE00040201F3F4038403F6314081463030478AC
:103AF00004036159494D43007F41414102040810CC
:103B000020004141417F0402010204404040404006
:103B1000000307080020545478407F284444383874
:103B200044444428384444287F38545454180008E6
:103B30007E090218A4A49C787F0804047800447DC0
:103B400040002040403D007F1028440000417F405D
:103B5000007C047804787C080404783844444438B1
:103B6000FC1824241818242418FC7C080404084891
:103B70005454542404043F44243C4040207C1C20E2
:103B800040201C3C4030403C44281028444C90903D
:103B9000907C4464544C4400083641000000770097
:103BA00000004136080002010204023C2623263CA4
:103BB0001EA1A161123A4040207A3854545559212F
:103BC0005555794122545478422155547840205417
:103BD0005579400C1E527212395555555939545465
:103BE000545939555454580000457C410002457DD4
:103BF000420001457C407D1211127DF0282528F0FD
:103C00007C545545002054547C547C0A097F493229
:103C1000494949323A4444443A324A4848303A41A0
:103C200041217A3A42402078009DA0A07D3D424249
:103C3000423D3D4040403D3C24FF2424487E4943D2
:103C4000662B2FFC2F2BFF0929F620C0887E090345
:103C500020545479410000447D413048484A32386C
:103C60004040227A007A0A0A727D0D19317D262998
:103C7000292F28262929292630484D402038080890
:103C8000080808080808382F10C8ACBA2F102834C4
:103C9000FA00007B000008142A142222142A1408B7
:103CA0005500550055AA55AA55AAFF55FF55FF00C6
:103CB0000000FF00101010FF00141414FF0010107B
:103CC000FF00FF1010F010F0141414FC001414F78F
:103CD00000FF0000FF00FF1414F404FC141417107C
:103CE0001F10101F101F1414141F00101010F000CC
:103CF0000000001F101010101F10101010F0100006
:103D00000000FF101010101010101010FF10000015
:103D100000FF140000FF00FF00001F10170000FC50
:103D200004F414141710171414F404F40000FF0022
:103D3000F714141414141414F700F71414141714AB
:103D400010101F101F141414F4141010F010F000B1
:103D5000001F101F0000001F14000000FC140000D2
:103D6000F010F01010FF10FF141414FF14101010B6
:103D70001F00000000F010FFFFFFFFFFF0F0F0F069
:103D8000F0FFFFFF0000000000FFFF0F0F0F0F0FFD
:103D90003844443844FC4A4A4A347E020206060249
:103DA0007E027E0263554941633844443C04407EB0
:103DB000201E2006027E020299A5E7A5991C2A4929
:103DC0002A1C4C7201724C304A4D4D3030487848B4
:103DD00030BC625A463D3E494949007E0101017EA0
:103DE0002A2A2A2A2A44445F444440514A444040F3
:103DF000444A51400000FF0103E080FF0000080832
:103E00006B6B083612362436060F090F06000018B1
:103E1000180000001010003040FF0101001F0101D8
:103E20001E00191D1712003C3C3C3C000000000025
:103E30004FBB610567ACDD3F182D4454FB21E93FC2
:103E40009BF681D20B73EF3F182D4454FB21F93FB1
:103E5000E2652F227F2B7A3C075C143326A6813C37
:103E6000BDCBF07A8807703C075C143326A6913CE2
:103E7000C4EB98999999C9BF711623FEC671BCBF4E
:103E80006D9A74AFF2B0B3BF9AFDDE522DDEADBFB6
:103E90002F6C6A2C44B4A2BF0D5555555555D53FCE
:103EA000FF8300922449C23F6E204CC5CD45B73FE9
:103EB000513DD0A0660DB13FEB0D76244B7BA93F61
:103EC00011DA22E33AAD903F00000000000000004C
:103ED000F03E000800000020CC040000D8090008D3
:103EE000B4400008CC04002014040000282000087E
:103EF0001184A24A040009140102030406070809F8
:103F00001280024340FC808080120B3EC0C05508E6
:103F10000812C0E0F0F8FCF8E06E19704973490C23
:103F20006CFFFFFF0D290619044BFFFF23992B3966
:103F3000071C8C8E8409CCF8F8F8B19AF00115E0D2
:103F4000E0C0801CE0FCFE551A7F04495BA11DFE09
:103F5000FFC701012A83186B7CFE0C12FF2D38FE6F
:103F6000C7830C2AC7191E01FFFF0101971A071208
:103F7000212B7FFF6E194F2905491E1AFF17B14DDE
:103F8000030F3F7F6D380FFFFFE7C7C78F8F9FBFBE
:103F9000FFFFC3C0F0115AFC011BF8F89D12C02BA3
:103FA000010301190641390D2C0101034F690C2948
:103FB000198905792659242906490CE13E80C0E07B
:103FC000F0F970180C3F1F0F87C7F7FFFF1F1F3D49
:103FD000745DF8F87C7D9A16FF7F3F0F070316305B
:103FE000300416FEFEFC19B4A109153E6BC0FE6438
:103FF0001CFF7F7F813808071F7FFFFFF8F8112C17
:10400000FEF8E0BA896831200AFCFEFC0C06060EB8
:10401000FCF81809F0F81C0E0606060C2A591D2992
:104020001E112008183C7E66E6CE844E06FFFF0671
:1040300006304A0621001314C0F8FC4E4646464E90
:104040007C7840183C76E6CECC801F01070F1F1FFE
:104050003F01C41F0F033B0F0F052906390C380918
:1040600003070E0C18180C06131B010F0D150C0F6F
:1040700007014A040959255930593E1F07070C0CFE
:10408000181C919926017E100880C0E0F0F8FCFE13
:104090001B0103F603253F7F850AD7A33C30096F38
:1040A00012833AA69B443B1A3F180B283B017A0A1D
:0440B000143F0CA10C
:0400000508000131BD
:00000001FF
